{
  "_format": "hh-sol-artifact-1",
  "contractName": "FileScopeRegistry",
  "sourceName": "contracts/FileScopeRegistry.sol",
  "abi": [
    {
      "anonymous": false,
      "inputs": [
        {
          "indexed": true,
          "internalType": "uint256",
          "name": "datasetId",
          "type": "uint256"
        },
        {
          "indexed": false,
          "internalType": "string",
          "name": "newAnalysisCID",
          "type": "string"
        }
      ],
      "name": "AnalysisUpdated",
      "type": "event"
    },
    {
      "anonymous": false,
      "inputs": [
        {
          "indexed": true,
          "internalType": "uint256",
          "name": "datasetId",
          "type": "uint256"
        }
      ],
      "name": "DatasetCited",
      "type": "event"
    },
    {
      "anonymous": false,
      "inputs": [
        {
          "indexed": true,
          "internalType": "uint256",
          "name": "datasetId",
          "type": "uint256"
        }
      ],
      "name": "DatasetDownloaded",
      "type": "event"
    },
    {
      "anonymous": false,
      "inputs": [
        {
          "indexed": true,
          "internalType": "uint256",
          "name": "datasetId",
          "type": "uint256"
        },
        {
          "indexed": true,
          "internalType": "address",
          "name": "uploader",
          "type": "address"
        },
        {
          "indexed": false,
          "internalType": "string",
          "name": "datasetCID",
          "type": "string"
        },
        {
          "indexed": false,
          "internalType": "string",
          "name": "analysisCID",
          "type": "string"
        },
        {
          "indexed": false,
          "internalType": "bool",
          "name": "isPublic",
          "type": "bool"
        }
      ],
      "name": "DatasetUploaded",
      "type": "event"
    },
    {
      "anonymous": false,
      "inputs": [
        {
          "indexed": true,
          "internalType": "uint256",
          "name": "datasetId",
          "type": "uint256"
        }
      ],
      "name": "DatasetViewed",
      "type": "event"
    },
    {
      "anonymous": false,
      "inputs": [
        {
          "indexed": true,
          "internalType": "address",
          "name": "previousOwner",
          "type": "address"
        },
        {
          "indexed": true,
          "internalType": "address",
          "name": "newOwner",
          "type": "address"
        }
      ],
      "name": "OwnershipTransferred",
      "type": "event"
    },
    {
      "anonymous": false,
      "inputs": [
        {
          "indexed": true,
          "internalType": "uint256",
          "name": "datasetId",
          "type": "uint256"
        },
        {
          "indexed": false,
          "internalType": "bool",
          "name": "newVisibility",
          "type": "bool"
        }
      ],
      "name": "VisibilityChanged",
      "type": "event"
    },
    {
      "inputs": [
        {
          "internalType": "uint256",
          "name": "datasetId",
          "type": "uint256"
        },
        {
          "internalType": "bool",
          "name": "newVisibility",
          "type": "bool"
        }
      ],
      "name": "changeVisibility",
      "outputs": [],
      "stateMutability": "nonpayable",
      "type": "function"
    },
    {
      "inputs": [],
      "name": "getAllPublicDatasets",
      "outputs": [
        {
          "components": [
            {
              "internalType": "string",
              "name": "datasetCID",
              "type": "string"
            },
            {
              "internalType": "string",
              "name": "analysisCID",
              "type": "string"
            },
            {
              "internalType": "address",
              "name": "uploader",
              "type": "address"
            },
            {
              "internalType": "bool",
              "name": "isPublic",
              "type": "bool"
            },
            {
              "internalType": "uint256",
              "name": "timestamp",
              "type": "uint256"
            },
            {
              "internalType": "uint256",
              "name": "views",
              "type": "uint256"
            },
            {
              "internalType": "uint256",
              "name": "downloads",
              "type": "uint256"
            },
            {
              "internalType": "uint256",
              "name": "citations",
              "type": "uint256"
            }
          ],
          "internalType": "struct FileScopeRegistry.Dataset[]",
          "name": "",
          "type": "tuple[]"
        }
      ],
      "stateMutability": "view",
      "type": "function"
    },
    {
      "inputs": [
        {
          "internalType": "uint256",
          "name": "datasetId",
          "type": "uint256"
        }
      ],
      "name": "getDataset",
      "outputs": [
        {
          "components": [
            {
              "internalType": "string",
              "name": "datasetCID",
              "type": "string"
            },
            {
              "internalType": "string",
              "name": "analysisCID",
              "type": "string"
            },
            {
              "internalType": "address",
              "name": "uploader",
              "type": "address"
            },
            {
              "internalType": "bool",
              "name": "isPublic",
              "type": "bool"
            },
            {
              "internalType": "uint256",
              "name": "timestamp",
              "type": "uint256"
            },
            {
              "internalType": "uint256",
              "name": "views",
              "type": "uint256"
            },
            {
              "internalType": "uint256",
              "name": "downloads",
              "type": "uint256"
            },
            {
              "internalType": "uint256",
              "name": "citations",
              "type": "uint256"
            }
          ],
          "internalType": "struct FileScopeRegistry.Dataset",
          "name": "",
          "type": "tuple"
        }
      ],
      "stateMutability": "view",
      "type": "function"
    },
    {
      "inputs": [],
      "name": "getMyDatasets",
      "outputs": [
        {
          "components": [
            {
              "internalType": "string",
              "name": "datasetCID",
              "type": "string"
            },
            {
              "internalType": "string",
              "name": "analysisCID",
              "type": "string"
            },
            {
              "internalType": "address",
              "name": "uploader",
              "type": "address"
            },
            {
              "internalType": "bool",
              "name": "isPublic",
              "type": "bool"
            },
            {
              "internalType": "uint256",
              "name": "timestamp",
              "type": "uint256"
            },
            {
              "internalType": "uint256",
              "name": "views",
              "type": "uint256"
            },
            {
              "internalType": "uint256",
              "name": "downloads",
              "type": "uint256"
            },
            {
              "internalType": "uint256",
              "name": "citations",
              "type": "uint256"
            }
          ],
          "internalType": "struct FileScopeRegistry.Dataset[]",
          "name": "",
          "type": "tuple[]"
        }
      ],
      "stateMutability": "view",
      "type": "function"
    },
    {
      "inputs": [
        {
          "internalType": "uint256",
          "name": "datasetId",
          "type": "uint256"
        }
      ],
      "name": "incrementCitations",
      "outputs": [],
      "stateMutability": "nonpayable",
      "type": "function"
    },
    {
      "inputs": [
        {
          "internalType": "uint256",
          "name": "datasetId",
          "type": "uint256"
        }
      ],
      "name": "incrementDownloads",
      "outputs": [],
      "stateMutability": "nonpayable",
      "type": "function"
    },
    {
      "inputs": [
        {
          "internalType": "uint256",
          "name": "datasetId",
          "type": "uint256"
        }
      ],
      "name": "incrementViews",
      "outputs": [],
      "stateMutability": "nonpayable",
      "type": "function"
    },
    {
      "inputs": [],
      "name": "owner",
      "outputs": [
        {
          "internalType": "address",
          "name": "",
          "type": "address"
        }
      ],
      "stateMutability": "view",
      "type": "function"
    },
    {
      "inputs": [],
      "name": "renounceOwnership",
      "outputs": [],
      "stateMutability": "nonpayable",
      "type": "function"
    },
    {
      "inputs": [],
      "name": "totalDatasets",
      "outputs": [
        {
          "internalType": "uint256",
          "name": "",
          "type": "uint256"
        }
      ],
      "stateMutability": "view",
      "type": "function"
    },
    {
      "inputs": [
        {
          "internalType": "address",
          "name": "newOwner",
          "type": "address"
        }
      ],
      "name": "transferOwnership",
      "outputs": [],
      "stateMutability": "nonpayable",
      "type": "function"
    },
    {
      "inputs": [
        {
          "internalType": "uint256",
          "name": "datasetId",
          "type": "uint256"
        },
        {
          "internalType": "string",
          "name": "newAnalysisCID",
          "type": "string"
        }
      ],
      "name": "updateAnalysis",
      "outputs": [],
      "stateMutability": "nonpayable",
      "type": "function"
    },
    {
      "inputs": [
        {
          "internalType": "string",
          "name": "_datasetCID",
          "type": "string"
        },
        {
          "internalType": "string",
          "name": "_analysisCID",
          "type": "string"
        },
        {
          "internalType": "bool",
          "name": "_isPublic",
          "type": "bool"
        }
      ],
      "name": "uploadDataset",
      "outputs": [],
      "stateMutability": "nonpayable",
      "type": "function"
    }
  ],
  "bytecode": "0x608060405234801561001057600080fd5b50600160005561001f33610024565b610076565b600180546001600160a01b038381166001600160a01b0319831681179093556040519116919082907f8be0079c531659141344cd1fd0a4f28419497f9722a3daafe3b4186f6b6457e090600090a35050565b611592806100856000396000f3fe608060405234801561001057600080fd5b50600436106100cf5760003560e01c8063a5267b891161008c578063ddd5955211610066578063ddd595521461017e578063ee0042211461018f578063f2fde38b146101af578063faee402e146101c257600080fd5b8063a5267b8914610150578063b80dedd314610163578063d6895db21461016b57600080fd5b80631c42f722146100d4578063229dd786146100f257806350ed27c314610107578063715018a61461011a5780638da5cb5b14610122578063a0af98221461013d575b600080fd5b6100dc6101d5565b6040516100e99190611113565b60405180910390f35b610105610100366004611175565b610479565b005b6101056101153660046111a3565b6104f9565b6101056105c7565b6001546040516001600160a01b0390911681526020016100e9565b61010561014b366004611272565b6105db565b61010561015e3660046112e6565b610827565b6100dc6108d1565b610105610179366004611175565b610b7d565b6005546040519081526020016100e9565b6101a261019d366004611175565b610bfc565b6040516100e9919061132d565b6101056101bd366004611347565b610df3565b6101056101d0366004611175565b610e6c565b33600090815260046020908152604080832080548251818502810185019093528083526060949383018282801561022b57602002820191906000526020600020905b815481526020019060010190808311610217575b505050505090506000815167ffffffffffffffff81111561024e5761024e6111cf565b60405190808252806020026020018201604052801561028757816020015b610274610ff0565b81526020019060019003908161026c5790505b50905060005b825181101561047257600360008483815181106102ac576102ac611370565b60200260200101518152602001908152602001600020604051806101000160405290816000820180546102de90611386565b80601f016020809104026020016040519081016040528092919081815260200182805461030a90611386565b80156103575780601f1061032c57610100808354040283529160200191610357565b820191906000526020600020905b81548152906001019060200180831161033a57829003601f168201915b5050505050815260200160018201805461037090611386565b80601f016020809104026020016040519081016040528092919081815260200182805461039c90611386565b80156103e95780601f106103be576101008083540402835291602001916103e9565b820191906000526020600020905b8154815290600101906020018083116103cc57829003601f168201915b505050918352505060028201546001600160a01b0381166020830152600160a01b900460ff16151560408201526003820154606082015260048201546080820152600582015460a082015260069091015460c090910152825183908390811061045457610454611370565b6020026020010181905250808061046a906113c0565b91505061028d565b5092915050565b60008181526003602052604090206002810154600160a01b900460ff16806104ad575060028101546001600160a01b031633145b156104f5576005810180549060006104c4836113c0565b909155505060405182907fe71e34790e17126ab6288f5a72bb53ba15af881a6db17048ef8cc4e573d09af190600090a25b5050565b60008281526003602052604090206002015482906001600160a01b0316331461055c5760405162461bcd60e51b815260206004820152601060248201526f2737ba103a3432903ab83637b0b232b960811b60448201526064015b60405180910390fd5b600083815260036020526040908190206002018054841515600160a01b0260ff60a01b199091161790555183907ff3a44e8d805bd0f1032c90832fce1901462db1fe79f60f8b401794f872b9d728906105ba90851515815260200190565b60405180910390a2505050565b6105cf610eeb565b6105d96000610f45565b565b6105e3610f97565b6002836040516105f391906113e7565b9081526040519081900360200190205460ff16156106535760405162461bcd60e51b815260206004820152601a60248201527f4461746173657420616c726561647920726567697374657265640000000000006044820152606401610553565b60008351116106935760405162461bcd60e51b815260206004820152600c60248201526b10d251081c995c5d5a5c995960a21b6044820152606401610553565b60016002846040516106a591906113e7565b9081526040805160209281900383018120805460ff1916941515949094179093556101008301815285835281830185905233838201528315156060840152426080840152600060a0840181905260c0840181905260e084018190526005548152600390925290208151819061071a9082611451565b506020820151600182019061072f9082611451565b5060408281015160028301805460608601511515600160a01b026001600160a81b03199091166001600160a01b03909316929092179190911790556080830151600383015560a083015160048084019190915560c084015160058085019190915560e090940151600690930192909255336000818152602093845282812085548154600181018355918352949091200192909255915491519091907f64d35c455282fa204a5ae2afc4548203df8d330aea34af903991b07781670022906107fb90879087908790611511565b60405180910390a360058054906000610813836113c0565b91905055506108226001600055565b505050565b60008281526003602052604090206002015482906001600160a01b031633146108855760405162461bcd60e51b815260206004820152601060248201526f2737ba103a3432903ab83637b0b232b960811b6044820152606401610553565b60008381526003602052604090206001016108a08382611451565b50827fc456802cb950069a4e4e4e8fcb5c467039677ba3779df93a99c26950690348fe836040516105ba9190611549565b60606000805b60055481101561092257600081815260036020526040902060020154600160a01b900460ff1615610910578161090c816113c0565b9250505b8061091a816113c0565b9150506108d7565b5060008167ffffffffffffffff81111561093e5761093e6111cf565b60405190808252806020026020018201604052801561097757816020015b610964610ff0565b81526020019060019003908161095c5790505b5090506000805b600554811015610b7457600081815260036020526040902060020154600160a01b900460ff1615610b625760008181526003602052604090819020815161010081019092528054829082906109d290611386565b80601f01602080910402602001604051908101604052809291908181526020018280546109fe90611386565b8015610a4b5780601f10610a2057610100808354040283529160200191610a4b565b820191906000526020600020905b815481529060010190602001808311610a2e57829003601f168201915b50505050508152602001600182018054610a6490611386565b80601f0160208091040260200160405190810160405280929190818152602001828054610a9090611386565b8015610add5780601f10610ab257610100808354040283529160200191610add565b820191906000526020600020905b815481529060010190602001808311610ac057829003601f168201915b505050918352505060028201546001600160a01b0381166020830152600160a01b900460ff16151560408201526003820154606082015260048201546080820152600582015460a082015260069091015460c0909101528351849084908110610b4857610b48611370565b60200260200101819052508180610b5e906113c0565b9250505b80610b6c816113c0565b91505061097e565b50909392505050565b60008181526003602052604090206002810154600160a01b900460ff1680610bb1575060028101546001600160a01b031633145b156104f557600481018054906000610bc8836113c0565b909155505060405182907f9f44e2a92279720f3bad0fdda5b7dabd9ad40ab5a0400775de64b32d09cacb8f90600090a25050565b610c04610ff0565b60008281526003602052604080822081516101008101909252805482908290610c2c90611386565b80601f0160208091040260200160405190810160405280929190818152602001828054610c5890611386565b8015610ca55780601f10610c7a57610100808354040283529160200191610ca5565b820191906000526020600020905b815481529060010190602001808311610c8857829003601f168201915b50505050508152602001600182018054610cbe90611386565b80601f0160208091040260200160405190810160405280929190818152602001828054610cea90611386565b8015610d375780601f10610d0c57610100808354040283529160200191610d37565b820191906000526020600020905b815481529060010190602001808311610d1a57829003601f168201915b505050918352505060028201546001600160a01b0381166020830152600160a01b900460ff1615156040820152600382015460608083019190915260048301546080830152600583015460a083015260069092015460c09091015281015190915080610daf575060408101516001600160a01b031633145b610ded5760405162461bcd60e51b815260206004820152600f60248201526e141c9a5d985d194819185d185cd95d608a1b6044820152606401610553565b92915050565b610dfb610eeb565b6001600160a01b038116610e605760405162461bcd60e51b815260206004820152602660248201527f4f776e61626c653a206e6577206f776e657220697320746865207a65726f206160448201526564647265737360d01b6064820152608401610553565b610e6981610f45565b50565b60008181526003602052604090206002810154600160a01b900460ff1680610ea0575060028101546001600160a01b031633145b156104f557600681018054906000610eb7836113c0565b909155505060405182907f210d754ffd05417125de5c9299f33662b4495184c76bdf3813915041de83a20990600090a25050565b6001546001600160a01b031633146105d95760405162461bcd60e51b815260206004820181905260248201527f4f776e61626c653a2063616c6c6572206973206e6f7420746865206f776e65726044820152606401610553565b600180546001600160a01b038381166001600160a01b0319831681179093556040519116919082907f8be0079c531659141344cd1fd0a4f28419497f9722a3daafe3b4186f6b6457e090600090a35050565b600260005403610fe95760405162461bcd60e51b815260206004820152601f60248201527f5265656e7472616e637947756172643a207265656e7472616e742063616c6c006044820152606401610553565b6002600055565b604051806101000160405280606081526020016060815260200160006001600160a01b03168152602001600015158152602001600081526020016000815260200160008152602001600081525090565b60005b8381101561105b578181015183820152602001611043565b50506000910152565b6000815180845261107c816020860160208601611040565b601f01601f19169290920160200192915050565b600061010082518185526110a682860182611064565b915050602083015184820360208601526110c08282611064565b91505060018060a01b0360408401511660408501526060830151151560608501526080830151608085015260a083015160a085015260c083015160c085015260e083015160e08501528091505092915050565b6000602080830181845280855180835260408601915060408160051b870101925083870160005b8281101561116857603f19888603018452611156858351611090565b9450928501929085019060010161113a565b5092979650505050505050565b60006020828403121561118757600080fd5b5035919050565b8035801515811461119e57600080fd5b919050565b600080604083850312156111b657600080fd5b823591506111c66020840161118e565b90509250929050565b634e487b7160e01b600052604160045260246000fd5b600082601f8301126111f657600080fd5b813567ffffffffffffffff80821115611211576112116111cf565b604051601f8301601f19908116603f01168101908282118183101715611239576112396111cf565b8160405283815286602085880101111561125257600080fd5b836020870160208301376000602085830101528094505050505092915050565b60008060006060848603121561128757600080fd5b833567ffffffffffffffff8082111561129f57600080fd5b6112ab878388016111e5565b945060208601359150808211156112c157600080fd5b506112ce868287016111e5565b9250506112dd6040850161118e565b90509250925092565b600080604083850312156112f957600080fd5b82359150602083013567ffffffffffffffff81111561131757600080fd5b611323858286016111e5565b9150509250929050565b6020815260006113406020830184611090565b9392505050565b60006020828403121561135957600080fd5b81356001600160a01b038116811461134057600080fd5b634e487b7160e01b600052603260045260246000fd5b600181811c9082168061139a57607f821691505b6020821081036113ba57634e487b7160e01b600052602260045260246000fd5b50919050565b6000600182016113e057634e487b7160e01b600052601160045260246000fd5b5060010190565b600082516113f9818460208701611040565b9190910192915050565b601f82111561082257600081815260208120601f850160051c8101602086101561142a5750805b601f850160051c820191505b8181101561144957828155600101611436565b505050505050565b815167ffffffffffffffff81111561146b5761146b6111cf565b61147f816114798454611386565b84611403565b602080601f8311600181146114b4576000841561149c5750858301515b600019600386901b1c1916600185901b178555611449565b600085815260208120601f198616915b828110156114e3578886015182559484019460019091019084016114c4565b50858210156115015787850151600019600388901b60f8161c191681555b5050505050600190811b01905550565b6060815260006115246060830186611064565b82810360208401526115368186611064565b9150508215156040830152949350505050565b602081526000611340602083018461106456fea2646970667358221220e800dd784b4aae754fcadb4e2b0096c2684b37d0c2f03c62b6b2df7dacaf181464736f6c63430008140033",
  "linkReferences": {},
  "deployedLinkReferences": {}
}